:020000040800F2
:10000000C8050020050100087B1800089B150008A2
:100010007918000813020008E91E0008000000001B
:100020000000000000000000000000007F18000831
:1000300051020008000000007D1800089D1900080A
:100040001F0100081F0100081F0100081F01000810
:100050001F0100081F0100081F0100081F01000800
:100060001F0100081F0100081F0100081F010008F0
:100070001F0100081F0100081F0100081F010008E0
:100080001F0100081F0100081F0100081F010008D0
:100090001F0100081F0100081F0100081F010008C0
:1000A0001F0100081F0100081F0100081F010008B0
:1000B0001F0100081F0100081F0100081F010008A0
:1000C0001F0100081F0100081F0100081F01000890
:1000D0001F010008C51E0008D11E0008DD1E000813
:1000E0001F0100081F0100081F010008DFF810D0E1
:1000F00000F06EF800480047BD230008AFF3008011
:10010000C80500200648804706480047FEE7FEE78E
:10011000FEE7FEE7FEE7FEE7FEE7FEE7FEE7FEE7B7
:10012000FF190008ED000008202A04DB203A21FA1C
:1001300002F00021704721FA02F3D040C2F1200200
:100140009140084319467047D2B201E000F8012BF4
:10015000491EFBD270470022F6E710B513460A4647
:1001600004461946FFF7F0FF204610BD2DE9F05F69
:100170000546002092469B46884606468146402416
:100180001BE02846414647462246FFF7CDFF53462F
:100190005A46C01A914110D311461846224600F023
:1001A00029F82D1A67EB01084F462246012000214D
:1001B00000F020F817EB00094E41201EA4F10104C5
:1001C000DFDC484631462A464346BDE8F09F000042
:1001D000064C074D06E0E06840F0010394E8070094
:1001E00098471034AC42F6D3FFF784FF0825000887
:1001F00028250008202A04DB203A00FA02F100201A
:1002000070479140C2F1200320FA03F31943904054
:100210007047FEE743421A461846114601F030BBCC
:1002200003461A46114601F02BBB00231A46194615
:10023000184601F025BB30B40346424230BC194693
:10024000104601F01DBB43421946024601F018BB9F
:10025000704772B6FEE710B590F82110002202290F
:1002600005D00421816380F82020012010BD0168A1
:100270000B6823F00E030B6001680B6823F0010389
:100280000B6090F84030C46B012101FA03F3636006
:1002900080F8211080F82020104610BD10B590F88D
:1002A00021100024022903D00421816301243DE0B0
:1002B00001680A6822F00E020A6001680A6822F0EA
:1002C00001020A601A4A0168914201D1012121E02C
:1002D000174A1432914201D110211BE0144A2832EE
:1002E000914201D1891515E0114A3C32914201D168
:1002F00089140FE00E4A5032914202D14FF48031FE
:1003000008E00B4A6432914202D14FF4801101E0BF
:100310004FF08071064A083A5160012180F821109F
:10032000002180F82010416B01B18847204610BDA4
:100330000800024070B5044600F00CF90546601C48
:1003400002D004480078044400F004F9401BA042A5
:10035000FAD370BD040000202DE9F84FDFF8B89102
:100360000024A9F1040B23460F2709F1040AABF17D
:10037000040EC9E00125A5402A40AA427DD1674E5E
:10038000D1F804C0ACEB0608B44532D014DCBCF1A3
:10039000030F3AD009DCBCF1000F2AD0BCF1010FE9
:1003A0001CD0BCF1020F31D11DE0BCF1110F17D0F0
:1003B000BCF1120F2AD119E0B8F5881F19D006DC5C
:1003C000B8F5803F15D0B8F5801F1FD111E0B8F502
:1003D000001F0ED0B8F5041F18D10AE0CB6815E055
:1003E000CB681B1D12E0CB6808330FE0CB680C33E1
:1003F0000CE08B682BB1012B4FF0080303D0456153
:1004000004E0042302E0056100E00023FF2A01D894
:10041000064601E000F104064FEA840501D9A5F182
:100420002005D6F8008007FA05FC28EA0C0803FA34
:1004300005F548EA0508C6F800804D68ED0062D56C
:10044000374DAE6946F00106AE61AD6924F0030692
:1004500005F001050095334D06EB050CDCF808505E
:10046000A607360F07FA06F825EA0805DFF8B88070
:10047000404503D14FF0000817E044E0DFF8AC80BE
:10048000404502D14FF001080FE0DFF8A48040455D
:1004900002D14FF0020808E0DFF89880404502D111
:1004A0004FF0030801E04FF0040808FA06F848EAA4
:1004B0000508CCF808804D68D9F80060ED024D467B
:1004C00001D5164300E096432E604D68DAF80060CF
:1004D000AD02554601D5164300E096432E604D68A7
:1004E000DBF80060AD035D4601D5164300E096439E
:1004F0002E604D68DEF80060ED03754601D51643A9
:1005000000E096432E60641C0D682A46E5407FF4A7
:1005100031AFBDE8F88F0000080401400000111061
:10052000001002400000014000080140000C0140A2
:100530000010014000140140C26821EA02030A4091
:1005400043EA0241016170470AB101617047090441
:10055000FBE70000014880687047000004000020AD
:1005600002488168027811448160704704000020CD
:10057000074810B5016841F010010160032000F048
:1005800075F80F2000F006F800F024F8002010BDE8
:100590000020024070B50D4D04464FF47A71287862
:1005A000B1FBF0F00A490968B1FBF0F000F0DCFAA9
:1005B00048B9102C07D200222146501E00F036F810
:1005C00000206C6070BD012070BD000004000020A0
:1005D000100000200C4808B5816941F001018161DB
:1005E000816901F001010091C16941F08051C1614F
:1005F000C06900F0805000900448416821F0E0613B
:1006000041F00071416008BD00100240000001404F
:10061000002809DB00F01F02012191404009800001
:1006200000F1E020C0F8001170470000F0B40E4B5C
:100630001B680C46C3F30223C3F10705042D00D940
:100640000425191D072901D2002300E0DB1E012625
:1006500006FA05F1491E214099409E40761E16403B
:100660003143F0BC01F052BC0CED00E0064900F053
:10067000070208684FF6FF03184040EA0220034AC9
:1006800010430860704700000CED00E00000FA0520
:100690002DE9F0470F46050061D0434E306800F069
:1006A0000700B84209D2306820F0070038433060B4
:1006B000306800F00700B84251D128683B4C8107F0
:1006C00012D5400703D5606840F4E0606060287888
:1006D000000703D5606840F4605060606068A968F6
:1006E00020F0F000084360602878C00728D06868D0
:1006F000012810D02168022810D0890700292EDA9D
:10070000616821F0030101436160FFF723FF804628
:1007100041F288390DE021688903EFE78901EDE7AF
:10072000FFF718FFA0EB0801494502D90320BDE8F7
:10073000F0876068696800F00C00B0EB810FEFD1C2
:10074000306800F00700B8420BD9306820F007008D
:1007500038433060306800F00700B84201D0012013
:10076000E5E72878400705D56068E96820F4E0608F
:10077000084360602878000706D56068296920F47E
:10078000605040EAC100606000F038F86168084AD3
:10079000C1F30311515CC84006490860064800686F
:1007A000FFF7F8FE0020C2E70020024000100240E0
:1007B000EE2400081000002008000020044805492D
:1007C00000684968044AC1F30221515CC84070477F
:1007D0001000002000100240FE24000804480549D3
:1007E00000684968044AC1F3C221515CC84070479F
:1007F0001000002000100240FE2400080E4A51683C
:100800000E4801F00C03042B11D0082B0FD10C481B
:10081000C1F38343C903C05C0AD55168084AC1F3D8
:100820004041921E515C054A5043B0FBF1F07047C5
:1008300004494843704700000010024000127A004B
:10084000DE24000800093D002DE9F84F040070D0B7
:100850002078C04DC00749D06868C0F381000128E6
:1008600007D06868C0F38100022809D16868C00316
:1008700006D52868800339D560680028E7D035E0C0
:100880006068B0F5803F0BD010B1B0F5A02F11D04B
:10089000286820F480302860286820F4802002E056
:1008A000286840F480302860606890B1FFF752FEFD
:1008B00006460AE0286840F480202860F0E700BF80
:1008C000FFF748FE801B642873D828688003F7D59B
:1008D0000CE0FFF73FFE064605E000BFFFF73AFEDB
:1008E000801B6428F0D828688003F7D420789A4EBB
:1008F00080074FF001094FF0000839D5686810F003
:100900000C0F07D06868C0F38100022809D168681D
:10091000C00306D42868800714D52069012808D1AF
:1009200010E02069B0B1C6F80090FFF713FE07464B
:1009300005E00AE1FFF70EFEC01B0228C4D82868B4
:100940008007F7D52868616920F0F80040EAC10007
:1009500028600DE0C6F80080FFF7FCFD074604E0C4
:10096000FFF7F8FDC01B022823D828688007F7D4BA
:10097000207800072CD57948A169D9B1C0F800903A
:10098000FFF7E8FD074604E0FFF7E4FDC01B02287F
:100990000FD8686A8007F7D571484FF4FA5100689C
:1009A000B0FBF1F0009000BF0098411E0091FAD218
:1009B0000EE080E0C0F80080FFF7CCFD074604E0C1
:1009C000FFF7C8FDC01B022875D8686A8007F7D4F6
:1009D0002078400760D5E8690027C00008D4E8699E
:1009E00040F08050E861E869012700F080500090F5
:1009F0005C480168C90513D40168834641F48071DD
:100A00000160FFF7A7FD824606E000BFFFF7A2FDE9
:100A1000A0EB0A0064284ED8DBF80000C005F5D52D
:100A2000E06801280AD008B1052813D0286A20F010
:100A300001002862286A20F0040002E0286A40F0E1
:100A400001002862E06841F2883B98B1FFF782FD1F
:100A500082460BE0286A40F004002862EEE700BFFF
:100A6000FFF778FDA0EB0A0159455AD8286A80079C
:100A7000F6D50CE0FFF76EFD824605E0FFF76AFD54
:100A8000A0EB0A0159454CD8286A8007F6D41FB15B
:100A9000E86920F08050E861E06988B36968C1F3D3
:100AA0008101022944D00228C6F8608004D0FFF7F3
:100AB00051FD044638E034E0FFF74CFD074604E002
:100AC000FFF748FDC01B02282BD828688001F7D407
:100AD000206AB0F5803F05D16868A16820F4003035
:100AE00008436860D4E908010843696821F4741177
:100AF00008436860C6F86090FFF72CFD044606E0E6
:100B000025E000BFFFF726FD001B022809D8286852
:100B10008001F7D51BE000BFFFF71CFD001B02287A
:100B200002D90320BDE8F88F28688001F4D40EE0D4
:100B30000128F7D06868226A00F48031914204D11C
:100B4000616A00F47010884201D00120EAE70020B9
:100B5000E8E70000001002400000424280044242E8
:100B6000100000200070004010B5401EB0F1807FE2
:100B700001D3012010BD4FF0E02460610F21601708
:100B800001F0C4F90020A06107202061002010BD01
:100B900070B590F83C20012A26D0012480F83C4012
:100BA000022280F83D2003685A689D6822F0700692
:100BB0000A6832435A600D4B02689A4208D0B2F17B
:100BC000804F05D00A4B9A4202D00A4B9A4204D178
:100BD000496825F080031943916080F83D40002169
:100BE00080F83C10084670BD022070BD002C01400A
:100BF000000400400008004010B5040003D094F841
:100C00003D0010B107E0012010BD002084F83C0039
:100C1000204600F01FF8022084F83D00211D2068C6
:100C200000F0EEFE012084F8460084F83E0084F8CF
:100C30003F0084F8400084F8410084F8420084F8C2
:100C4000430084F8440084F8450084F83D00002007
:100C500010BD000008B50068B0F1804F08D105480C
:100C6000C16941F00101C161C06900F0010000905B
:100C700008BD00000010024070B5044690F83C002A
:100C80000025012817D0012684F83C60022084F852
:100C90003D002068826822F0770222F47F42826061
:100CA0000868502838D00DDC20284FD005DC90B3E0
:100CB000102811D14AE0022070BD302846D04028CB
:100CC0000AD13BE060282FD070280DD0B0F5805FAE
:100CD00003D0B0F5005F12D0012584F83D600020FC
:100CE00084F83C00284670BDCB68D1E9012120681A
:100CF00000F0CFFE2068816841F0770109E0CB6801
:100D0000D1E90121206800F0C4FE2068816841F427
:100D100080418160E1E719E0CA684968206800F015
:100D20006DFF5021206806E0CA684968206800F01D
:100D300076FF6021206800F0B6FECEE7CA684968F9
:100D4000206800F05BFF40212068F4E7226801463C
:100D50001046F0E710B586B0002100910191029194
:100D60000391144C03681448C0220221A3420DD100
:100D7000836943F0040383618069CDE9002100F0B9
:100D80000400CDE9031069460C480FE00C4CA34267
:100D90000ED1836943F0080383618069CDE90021A6
:100DA00000F00800CDE9031069460648FFF7D4FAC1
:100DB00006B010BD000400400010024000080140D1
:100DC00000080040000C014070B5044690F83C005B
:100DD00000260D4601280FD0012084F83C006AB19E
:100DE000042A1DD0082A2FD00C2A3FD0012600202B
:100DF00084F83C00304670BD022070BD206800F0D1
:100E00005BFE2068816941F0080181612068816989
:100E100021F004018161206881692A69114311E090
:100E2000206800F071FE2068816941F400618161F1
:100E30002068816921F480618161206881692A6963
:100E400041EA02218161D2E7206800F089FE206832
:100E5000C16941F00801C1612068C16921F0040144
:100E6000C1612068C1692A69114311E0206800F05E
:100E7000A3FE2068C16941F40061C1612068C169B5
:100E800021F48061C1612068C1692A6941EA0221B7
:100E9000C161ACE710B5040003D094F83D0010B177
:100EA00007E0012010BD002084F83C00204600F03F
:100EB0001FF8022084F83D00211D206800F0A0FDED
:100EC000012084F8460084F83E0084F83F0084F84E
:100ED000400084F8410084F8420084F8430084F81C
:100EE000440084F8450084F83D00002010BD000057
:100EF00008B50C4A01680C48914207D1C16941F01C
:100F00000201C161C06900F0020009E0074A914294
:100F100007D1C16941F00401C161C06900F004005A
:100F2000009008BD0004004000100240000800408E
:100F300010B50446022249B104290ED0082913D065
:100F400094F84100012816D0012010BD94F83E000D
:100F50000128F9D184F83E200FE094F83F000128E1
:100F6000F2D184F83F2008E094F840000128EBD14A
:100F700084F8402001E084F841200122206800F03C
:100F80007BFD0F492068884203D1426C42F4004245
:100F900042642068884208D0B0F1804F05D00949EA
:100FA000884202D00849884204D1816801F00701D3
:100FB000062903D0016841F001010160002010BD45
:100FC000002C0140000400400008004070477047BA
:100FD000F8B5016804460868CA684B6910F00F0F3D
:100FE0004FF0000559D003F0010602F49077374323
:100FF00065D0C10705D0D10503D5616C41F0010171
:101000006164410705D5D90703D0616C41F0020145
:101010006164810705D5D90703D0616C41F00401F3
:101020006164010707D502F02001314303D0616CF0
:1010300041F008016164616C00293AD0800604D552
:10104000900602D5204600F02BFE20684069616CB6
:10105000C0F38010090700D460B3204600F0F9FD0A
:1010600020684069400621D52068143050E8001FF0
:1010700021F0400140E80012002AF5D1E06BA8B150
:101080006D494163E06BFFF709F9002811D0E06B6F
:10109000416B01B0BDE8F040084783060FD59306C9
:1010A0000DD52046BDE8F84000F0FABD2046FFF718
:1010B0008EFFF8BD2046FFF78AFF6564F8BD266BFA
:1010C0002023012E7CD1C6067AD5D60678D50868AD
:1010D0004868009048694FF00206400640D5E16B31
:1010E000086840680004000CE8D0A28D8242E5D96F
:1010F000E085886920282DD020680C3050E8001F3A
:1011000021F4807140E80012002AF5D120681430E3
:1011100050E8001F21F0010140E80012002AF5D13B
:101120002068143050E8001F21F0400140E8001210
:10113000002AF5D184F84230256320680C3050E84D
:10114000001F21F0100140E80012002AF5D1E06BE9
:10115000FFF781F86663A08DE18D401A81B22AE025
:10116000A08DE18D401A81B2E08D0028A6D0002923
:10117000A4D022680C3252E8000F20F4907042E8AC
:101180000007002FF5D12068143050E8002F22F01E
:10119000010240E80027002FF5D184F84230256392
:1011A00020680C3050E8002F22F0100240E80023A5
:1011B000002BF5D166632046FFF708FFF8BDFFE777
:1011C00005062BD5150629D594F841002128F5D11F
:1011D000A068B0F5805F01D12069B0B1206A411CE0
:1011E0002162216800784860E08C401E0004000CF9
:1011F000E084E3D12068C16821F08001C1602068EB
:10120000C16841F04001C160D8E7206A0088C0F39E
:1012100008004860206A801C2062E5E74006CDD5C2
:101220005006CBD5CA68204622F04002CA6084F836
:10123000413000F0B1F9C1E7431C000870B504006B
:1012400004D094F84100002510B106E0012070BDE3
:1012500084F84050204600F023F8242084F8410010
:101260002068C16821F40051C160204600F07AFD79
:101270002068016921F4904101612068416921F0F1
:101280002A0141612068C16841F40051C160656470
:10129000202084F8410084F842006563002070BD7E
:1012A000F0B585B00024009401940294039403687F
:1012B000424F022042490322424D4602BB4225D101
:1012C0008B6943F480438B618B6903F480430493FF
:1012D0008B6943F004038B618969039201F0040177
:1012E00004910102CDE9001069462846FFF734F861
:1012F000CDE90064694628460294FFF72DF80022E4
:1013000011462520FFF792F9252028E02E4FBB42F9
:1013100029D1CB6943F40033CB61CB6903F40033AB
:1013200004938B6943F004038B618969039201F094
:10133000040104910421CDE9001069462846FFF715
:101340000BF80820CDE90004694628460294FFF70F
:1013500003F8002211462620FFF768F92620FFF740
:1013600057F905B0F0BD194DAB42FAD1CB6943F442
:101370008023CB61CB6903F4802304938B6943F012
:1013800008038B618969124D01F00801CDE9032141
:10139000CDE9006069462846FEF7DEFFE814CDE996
:1013A0000004694628460294FEF7D6FF0022114643
:1013B0002720FFF73BF92720D1E700000038014044
:1013C0000010024000080140004400400048004076
:1013D000000C014090F84230202B01D002207047D1
:1013E00021B11AB10023036300F018BD012070473A
:1013F00010B51D49884236D11C4C21781CA000F044
:1014000075FD217841F28830672916D0217862294C
:1014100017D021786C2918D02178722919D020781A
:1014200073281AD0217818A000F060FDBDE81040A4
:1014300001220E490C48FFF7CDBFFEF7F1FE19A0BF
:101440000EE0FEF7E7FE1BA00AE0FEF7F4FE1DA08B
:1014500006E0FEF7F8FE20A002E0FEF7E6FE23A07D
:1014600000F044FDE2E710BDF00000200000002085
:10147000526563656976656420627974653A2030E7
:1014800078253032580D0A00556E6B6E6F776E20DE
:10149000636F6D6D616E643A203078253032580D7F
:1014A0000A000000434D443A20466F72776172642F
:1014B0000D0A0000434D443A204261636B7761722C
:1014C000640D0A00434D443A205475726E204C65F9
:1014D00066740D0A00000000434D443A20547572B2
:1014E0006E2052696768740D0A000000434D443A4B
:1014F0002053746F700D0A002DE9F843044690F8EC
:101500004100984616460D46202802D00220BDE82C
:10151000F88385B17EB100206064212084F8410009
:10152000FFF718F8A6848146E684A0682027B0F566
:10153000805F02D003E00120E9E7206910B12E4668
:1015400000250EE000260CE08021204600F081FC02
:10155000A8B9C6B116F8010B21684860E08C401E9E
:10156000E084E08C4B464FF00002CDF8008000286C
:10157000EAD14FF04001204600F06BFC40B184F806
:1015800041700320C3E735F8020BC0F30800E3E71E
:1015900084F841700020BAE77047FEE710B50021DB
:1015A0000948FFF7C5FC04210748FFF7C1FC0021EB
:1015B0000648FFF7BDFC04210448FFF7B9FCBDE86D
:1015C0001040FEF732BE000060000020A80000209E
:1015D0002DE9F04385B00024214800940194029441
:1015E0000394816941F020018161816901F020014A
:1015F0000491816941F004018161816901F0040174
:101600000491816941F0080181618069DFF85480AB
:1016100000F0080040F2333504900022294640468D
:10162000FEF792FFDFF840904FF4C0570022394692
:101630004846FEF789FF0095022601250396CDE96D
:10164000015469464046FEF787FE00970396CDE9B0
:10165000015469464846FEF77FFE05B0BDE8F083B9
:1016600000100240000C01400008014010B586B097
:1016700000241648009401940294039404944FF0BB
:101680008041059401604721C0E9011440F2E7312F
:10169000C0E903148461FFF7AFFA08B1FEF7D9FD82
:1016A0004FF48050009069460848FFF7E5FA08B10A
:1016B000FEF7CFFD049404A904480594FFF768FAE7
:1016C000002801D0FEF7C5FD06B010BD18000020AF
:1016D00010B58AB0002407941C2168460894FEF7D0
:1016E0003AFD1A481849C0E9001441F61F41C0E903
:1016F000024104618461FFF7CDFB08B1FEF7A9FD4B
:10170000079407A911480894FFF742FA08B1FEF7B9
:10171000A0FD6020CDE900040294002269460B4838
:101720000494FFF751FB08B1FEF793FD04226946CC
:101730000648FFF749FB08B1FEF78BFD0348FFF7AA
:1017400009FB0AB010BD000000040040600000204A
:1017500010B58AB0002407941C2168460894FEF74F
:10176000FAFC1A481849C0E9001441F61F41C0E9C3
:10177000024104618461FFF78DFB08B1FEF769FD4A
:10178000079407A911480894FFF702FA08B1FEF779
:1017900060FD6020CDE900040294002269460B48F8
:1017A0000494FFF711FB08B1FEF753FD04226946CC
:1017B0000648FFF709FB08B1FEF74BFD0348FFF7AA
:1017C000C9FA0AB010BD000000080040A8000020BF
:1017D0000C4810B50A4901604FF4E1314160002125
:1017E00081600C22C160C0E904128161C161FFF710
:1017F00025FD002803D0BDE81040FEF72ABD10BD2E
:1018000000380140F00000200C4810B50A49016082
:101810004FF4E1314160002181600C22C160C0E9D8
:1018200004128161C161FFF709FD002803D0BDE802
:101830001040FEF70EBD10BD0044004038010020EE
:101840000C4810B50A4901604FF4E13141600021B4
:1018500081600C22C160C0E904128161C161FFF79F
:10186000EDFC002803D0BDE81040FEF7F2BC10BD2F
:101870000048004080010020FEE7FEE77047704707
:1018800070B50C4601461D461646012000F00EF8C4
:101890002146022000F00AF83146032000F006F845
:1018A0002946BDE870400420AFF3008070B54FF4C6
:1018B000E152914202DC5242914200DA1146334C2D
:1018C000012814D0022816D0032819D004285BD18F
:1018D00083012F4AC501042000291EDDA8B1042878
:1018E00016D00828106816D00164012239E00123BF
:1018F0000225284A07E0284C264AE3145D00EAE75F
:101900001023234A20250020E6E710684163ECE716
:1019100010688163E9E7C163E7E719DA70B1042869
:1019200010D00828C1F1000011680FD0086400220F
:1019300019462046FEF708FE012217E048421168CA
:101940004863F4E7484211688863F0E7C863EEE74C
:10195000002188B1042812D00828106812D0016430
:10196000002219462046FEF7EFFD002229462046B8
:10197000BDE87040FEF7E8BD10684163F0E710680D
:101980008163EDE7C163EBE770BD0000000C01402F
:10199000A80000206000002000080140FEF7E0BD24
:1019A00030B58FB028216846FEF7D5FB14210AA870
:1019B000FEF7D1FB01210804CDE9001000240294B8
:1019C00002250491CDE907504FF4E01009906846D4
:1019D000FEF73AFF08B172B6FEE70F20CDE90A051F
:1019E0004FF48060CDE90C4002210AA80E94FEF766
:1019F0004FFE002801D072B6FEE70FB030BD704731
:101A0000F0B50268194B1A4C1A4D4FF080479842B6
:101A100005D0B84203D0A04201D0A84203D122F0A1
:101A200070064A683243984205D0B84203D0A042BB
:101A300001D0A84203D122F44074CA6822434C6901
:101A400022F08002224302608A68C2620A688262CF
:101A5000984201D109690163012141610169C90706
:101A600003D0016921F001010161F0BD002C0140AA
:101A7000000400400008004010B501F01F030121E0
:101A8000046A99408C430462016A9A4011430162DE
:101A900010BD10B5846842EA032224F47F440A434F
:101AA0002243826010BD826822F070020A4342F035
:101AB000070181607047000030B5036A026A22F0B6
:101AC000010202624268846924F073050C682C43A9
:101AD00023F002058B682B430A4DA8420BD123F05B
:101AE0000805CB6822F440722B434D6923F00403B0
:101AF00015438A692A4342608461496841630362ED
:101B000030BD0000002C014030B5026A036A23F0AA
:101B100010030362436884690D6824F4E64444EAD0
:101B200005248D6822F0200242EA05120B4DA842DE
:101B30000ED1CD6822F0800242EA05124D6923F4ED
:101B4000406343EA85038D6922F0400243EA85033E
:101B50004360846149688163026230BD002C0140AA
:101B600030B5036A026A22F4807202624268C46974
:101B700023F4007324F073050C682C438D6843EA4A
:101B800005230C4DA8420ED1CD6823F4006343EA2F
:101B900005234D6922F4405242EA05128D6923F46F
:101BA000806342EA05124260C4614968C16303620E
:101BB00030BD0000002C014030B5046A026A22F4F6
:101BC000805202624268C3690D6823F4E64343EA27
:101BD00005238D6824F4005444EA0534064DA842D8
:101BE00004D14D6922F4804242EA85124260C36109
:101BF00049680164046230BD002C014010B5036ADD
:101C0000046A24F001040462846924F0F00444EAC4
:101C1000021423F00A020A438461026210BD10B567
:101C2000036A046A24F010040462846923F0A003A8
:101C300024F4704444EA023243EA011182610162F1
:101C400010BD10B5406A0021C185C184FFF7BFF9FE
:101C500010BD01680C3151E8002F22F4907241E868
:101C60000023002BF5D10168143151E8002F22F038
:101C7000010241E80023002BF5D1016B012909D1B4
:101C800001680C3151E8002F22F0100241E80023D6
:101C9000002BF5D1202180F842100021016370470C
:101CA00008B590F84210222901D0022008BD8268B0
:101CB0004FF480539A4201D1016921B1816A9A425D
:101CC0001BD04AB10AE00268816A5268C2F3080276
:101CD0000A80816A891C08E0026972B10268526850
:101CE00002F07F020A70816A491C8162C18D491E1F
:101CF0000904090CC18503D01BE002685268F1E7B2
:101D00000168CA6822F02002CA600168CA6822F429
:101D10008072CA6001684A6922F001024A6120218A
:101D200080F8421000214163026B012A03D0FFF7C3
:101D30005FFB002008BD016301680C3151E8002FF2
:101D400022F0100241E80023002BF5D101680A6857
:101D5000D20602D50A6849680091818DFFF736F9ED
:101D6000E7E7000070B5044600680169E26821F405
:101D70004051114301612169A0680843616908432A
:101D80002168CA6841F20C639A430243CA60206822
:101D90004169A26921F44071114341611E492068E3
:101DA000884202D1FEF71AFD01E0FEF707FD00EBC5
:101DB000C00101EB0012606864218000B2FBF0F307
:101DC000B3FBF1F36FF018067343B2FBF0F5B2FB0F
:101DD000F0F605EB8305322303EB0515B5FBF1F5B2
:101DE000B6FBF1F605F0F00505EB0615B2FBF0F6D3
:101DF000B2FBF0F0B0FBF1F06FF01802504306EBCD
:101E0000800003EB0010B0FBF1F0216800F00F0040
:101E10002844886070BD00000038014081628285DE
:101E2000C28500214164222180F84210016921B15C
:101E30000168CA6842F48072CA6001684A6942F067
:101E400001024A610068C16841F02001C1600020C0
:101E500070472DE9F843984617460D460446089EFC
:101E600024E0701C22D0FEF775FBA0EB0800B04206
:101E70001AD8CEB12068C168490717D5802D15D072
:101E8000402D13D00168C94309070FD4016800250C
:101E9000406800902046FFF7DCFE0820606484F86C
:101EA00040500120BDE8F8830320FBE7206800686C
:101EB00035EA000004D00020B842D2D00020F1E77B
:101EC0000120F9E70148FFF783B80000F000002087
:101ED0000148FFF77DB80000380100200148FFF7F6
:101EE00077B8000080010020FEE700000FB4054B2A
:101EF00010B503A9044A029800F028F810BC5DF858
:101F000014FB0000A5230008140000200907090E97
:101F1000002804DB00F1E02080F80014704700F096
:101F20000F0000F1E02080F8141D704702E008C89F
:101F3000121F08C1002AFAD170477047002001E043
:101F400001C1121F002AFBD1704700002DE9FF4F8D
:101F50008DB00F460546002606E025280BD0DDE9AA
:101F60000F1290476D1C761C28780028F5D111B00F
:101F70003046BDE8F08F0024A246A1460122E9497F
:101F800000E0044315F8013F203B02FA03F0084249
:101F9000F7D128782A2810D06FF02F022878A0F1E6
:101FA0003001092914D80AEB8A0102EB410144F0FF
:101FB000020400EB010A6D1CF0E701CF5FEA000AA2
:101FC00003D544F40054CAF1000A44F002046D1C25
:101FD00028782E2817D115F8010F44F004042A2878
:101FE0000ED06FF02F022878A0F1300109290AD80D
:101FF00009EB890102EB410100EB01096D1CF2E7DD
:1020000057F8049B6D1C28786C280FD006DC4C28F0
:1020100017D068280DD06A2814D104E0742810D095
:102020007A280FD10DE044F400140AE044F480143F
:1020300001E044F440146978814202D104F580142F
:102040006D1C6D1C28786E281ED00CDC632830D0E7
:1020500004DC00288BD0582811D19FE0642867D079
:1020600069280CD164E073282DD004DC6F2872D06D
:10207000702804D194E075286ED078286DD0DDE901
:102080000F129047761C4BE1C4F30250022806D091
:10209000032809D0042801CF09D0066040E101CF10
:1020A000F117C0E900613BE101CF068038E106701D
:1020B00036E117F8040B8DF8000000208DF80100C0
:1020C000EB46012003E057F804BB4FF0FF306107F7
:1020D0004FF0000102D40DE008F1010188464945A6
:1020E0000FDA8045F8DB1BF808100029F4D108E06E
:1020F00008F1010188468142FADB1BF8081000292B
:10210000F6D1DDE90F23AAEB08008146214600F055
:1021100031F9304400EB080604E0DDE90F121BF84A
:10212000010B9047B8F10108F7D221464846F2E08A
:102130000A21C4F302524FF0000B0891022A04D086
:1021400001CFC117032A09D00AE0FF1D27F00707B6
:10215000F7E8020108E02CE01EE01FE000B2C11722
:10216000042A01D140B2C117021E71F1000206DA41
:102170000023D0EB030063EB01012D2202E02205D6
:1021800004D52B228DF82420012203E0E20701D0A0
:102190002022F7E7904653E00A210BE0102109E0E6
:1021A00010214FF0000B44F004044FF0080908918F
:1021B00003E008214FF0000B0891C4F30252022AF9
:1021C00004D001CF0021032A06D006E0FF1D27F02E
:1021D0000707F7E8020103E080B2042A00D1C0B289
:1021E0004FF0000822072BD52A78702A07D0DDF897
:1021F00020C08CF0100C5CEA0B0C05D00EE04022E5
:102200008DF82420012208E050EA010306D0302393
:102210008DF824308DF8252002229046089B83F00B
:10222000080353EA0B030BD150EA010201D1620704
:1022300006D530228DF824204FF00108A9F10109BC
:102240002A78582A04D038A20B9208AA0A920BE0E6
:102250003AA2F9E75B46089AFDF788FF0B9B9B5C67
:102260000A9A521E0A92137050EA0102F2D10A9899
:10227000ADEB000000F1200B600702D524F48034A0
:1022800001E04FF00109D94502DDA9EB0B0000E0A8
:10229000002000EB0B0141440890AAEB010AE00387
:1022A00006D4DDE90F232146504600F063F80644CA
:1022B0004FF0000908E009A911F80900DDE90F1243
:1022C000904709F10109761CC145F4DBE0030CD508
:1022D000DDE90F232146504600F04CF8064404E0A7
:1022E000DDE90F1230209047761C0899481E0890AF
:1022F0000029F5DC08E00A980A990078491C0A913F
:10230000DDE90F129047761CBBF10001ABF1010B28
:10231000F1DC21465046DDE90F2300F019F80644B0
:102320006D1C21E60928010030313233343536374F
:102330003839616263646566000000003031323311
:1023400034353637383941424344454600000000B1
:102350002DE9F041044600251E461746880404D4A2
:1023600005E039462020B0476D1C641EF9D528468B
:10237000BDE8F0812DE9F041044600251E46904657
:10238000C80301D5302700E02027880404D505E0E4
:1023900041463846B0476D1C641EF9D52846BDE855
:1023A000F081000013B54FF47A73012269460248A8
:1023B000FFF7A2F800981CBD8001002086B0FEF750
:1023C000D7F8FFF7EDFAFFF703F9FFF74FF9FFF73B
:1023D0007FF9FFF7BDF9FFF733FAFFF715FAFFF7BB
:1023E000F7F91C48816941F01001816180694FF45F
:1023F000005400F010000490002002900120CDE96C
:1024000000400220144E039069463046FDF7A4FFB9
:10241000FFF7C4F8012211491148FEF7DBFF4FF422
:102420007A752846FDF786FF0EA0FFF75FFD16A11F
:1024300018A0FFF75BFD1BA0FFF758FD20A0FFF7DA
:1024400055FD21463046FEF777F82846FDF772FF26
:10245000F7E70000001002400010014000000020DB
:10246000F00000203D3D3D20536D617274204361BA
:10247000722053797374656D20537461727465644E
:10248000203D3D3D0D0A000069746D6F71696E67F6
:10249000310000004465766963653A2025730D0AB2
:1024A000000000004D51545420526561647920763B
:1024B000696120455350383236360D0A000000005D
:1024C00057616974696E6720666F7220636F6D6D06
:1024D000616E64732E2E2E0D0A00000001020203AD
:1024E0000405060708090A0B0C0D0E0F101000005A
:1024F00000000000000001020304060708090000B4
:10250000000001020304000028250008000000204C
:10251000180000002C1F00084025000818000020AB
:10252000B00500003C1F0008000000000100000092
:10253000100000000000000000127A0000000000FF
:04000005080000ED02
:00000001FF
